:0608380012083E12088EBA
:10083E00E4FDFCC3ED9FEC9E5015E4FBFA0BBB00F0
:0F084E00010AEB64354A70F50DBD00010C80E422
:01085D002278
:09086A00D292D291C2B4C29022D4
:09087300C292C291D2B4D29022CB
:09087C00D292C291C2B4D29022C2
:09088500C292D291D2B4C29022B9
:09088E00C292C291C2B4C29022D0
:10080000D2A7D293D29412086AC2A77FE87E0312BD
:10081000083ED2A712088E12083E1208731208383A
:1008200012087C12083812088512083E12088E7FC2
:08083000A07E0F12083E80CEED
:0300000002085E95
:0C085E00787FE4F6D8FD758107020800E1
:00000001FF
